{
  "_format": "hh-sol-artifact-1",
  "contractName": "OrangePriceFeed",
  "sourceName": "contracts/OrangePriceFeed.sol",
  "abi": [
    {
      "inputs": [
        {
          "internalType": "address",
          "name": "_orangePriceFeed1Contract",
          "type": "address"
        },
        {
          "internalType": "address",
          "name": "_orangePriceFeed2Contract",
          "type": "address"
        },
        {
          "internalType": "address",
          "name": "_orangePriceFeed3Contract",
          "type": "address"
        },
        {
          "internalType": "address",
          "name": "_pushNotificationContract",
          "type": "address"
        }
      ],
      "stateMutability": "nonpayable",
      "type": "constructor"
    },
    {
      "inputs": [],
      "name": "averagePrice",
      "outputs": [
        {
          "internalType": "uint256",
          "name": "",
          "type": "uint256"
        }
      ],
      "stateMutability": "view",
      "type": "function"
    },
    {
      "inputs": [
        {
          "internalType": "uint256",
          "name": "_average",
          "type": "uint256"
        }
      ],
      "name": "calcAveragePrice",
      "outputs": [
        {
          "internalType": "uint256",
          "name": "",
          "type": "uint256"
        }
      ],
      "stateMutability": "nonpayable",
      "type": "function"
    },
    {
      "inputs": [],
      "name": "flag",
      "outputs": [
        {
          "internalType": "uint256",
          "name": "",
          "type": "uint256"
        }
      ],
      "stateMutability": "view",
      "type": "function"
    },
    {
      "inputs": [],
      "name": "getPrice",
      "outputs": [],
      "stateMutability": "nonpayable",
      "type": "function"
    },
    {
      "inputs": [],
      "name": "limit",
      "outputs": [
        {
          "internalType": "uint256",
          "name": "",
          "type": "uint256"
        }
      ],
      "stateMutability": "view",
      "type": "function"
    },
    {
      "inputs": [],
      "name": "price1",
      "outputs": [
        {
          "internalType": "uint256",
          "name": "",
          "type": "uint256"
        }
      ],
      "stateMutability": "view",
      "type": "function"
    },
    {
      "inputs": [],
      "name": "price2",
      "outputs": [
        {
          "internalType": "uint256",
          "name": "",
          "type": "uint256"
        }
      ],
      "stateMutability": "view",
      "type": "function"
    },
    {
      "inputs": [],
      "name": "price3",
      "outputs": [
        {
          "internalType": "uint256",
          "name": "",
          "type": "uint256"
        }
      ],
      "stateMutability": "view",
      "type": "function"
    }
  ],
  "bytecode": "0x60806040526000805560006001556000600255600060035560006004557fffffffffffffffffffffffffffffffffffffffffffffffffffffffffffffffff60055534801561004c57600080fd5b506040516108cc3803806108cc833981810160405281019061006e91906101de565b83600660006101000a81548173ffffffffffffffffffffffffffffffffffffffff021916908373ffffffffffffffffffffffffffffffffffffffff16021790555082600760006101000a81548173ffffffffffffffffffffffffffffffffffffffff021916908373ffffffffffffffffffffffffffffffffffffffff16021790555081600860006101000a81548173ffffffffffffffffffffffffffffffffffffffff021916908373ffffffffffffffffffffffffffffffffffffffff16021790555080600960006101000a81548173ffffffffffffffffffffffffffffffffffffffff021916908373ffffffffffffffffffffffffffffffffffffffff16021790555050505050610245565b600080fd5b600073ffffffffffffffffffffffffffffffffffffffff82169050919050565b60006101ab82610180565b9050919050565b6101bb816101a0565b81146101c657600080fd5b50565b6000815190506101d8816101b2565b92915050565b600080600080608085870312156101f8576101f761017b565b5b6000610206878288016101c9565b9450506020610217878288016101c9565b9350506040610228878288016101c9565b9250506060610239878288016101c9565b91505092959194509250565b610678806102546000396000f3fe608060405234801561001057600080fd5b50600436106100885760003560e01c806398d5fdca1161005b57806398d5fdca14610117578063a0352ea314610121578063a4d66daf1461013f578063d778c9111461015d57610088565b806327a3181d1461008d5780636caf25ce146100ab578063890eba68146100c957806396b4ebe3146100e7575b600080fd5b61009561017b565b6040516100a29190610468565b60405180910390f35b6100b3610181565b6040516100c09190610468565b60405180910390f35b6100d1610187565b6040516100de9190610468565b60405180910390f35b61010160048036038101906100fc91906104b4565b61018d565b60405161010e9190610468565b60405180910390f35b61011f610276565b005b61012961043d565b6040516101369190610468565b60405180910390f35b610147610443565b6040516101549190610468565b60405180910390f35b610165610449565b6040516101729190610468565b60405180910390f35b60015481565b60005481565b60045481565b600060036002546001546000546101a49190610510565b6101ae9190610510565b6101b89190610573565b60038190555060035460055411610263576001600481905550600960009054906101000a900473ffffffffffffffffffffffffffffffffffffffff1673ffffffffffffffffffffffffffffffffffffffff1663e1cb7c76336040518263ffffffff1660e01b815260040161022c91906105e5565b600060405180830381600087803b15801561024657600080fd5b505af115801561025a573d6000803e3d6000fd5b5050505061026c565b60006004819055505b6003549050919050565b600660009054906101000a900473ffffffffffffffffffffffffffffffffffffffff1673ffffffffffffffffffffffffffffffffffffffff1663a035b1fe6040518163ffffffff1660e01b8152600401602060405180830381865afa1580156102e3573d6000803e3d6000fd5b505050506040513d601f19601f820116820180604052508101906103079190610615565b600081905550600760009054906101000a900473ffffffffffffffffffffffffffffffffffffffff1673ffffffffffffffffffffffffffffffffffffffff1663a035b1fe6040518163ffffffff1660e01b8152600401602060405180830381865afa15801561037a573d6000803e3d6000fd5b505050506040513d601f19601f8201168201806040525081019061039e9190610615565b600181905550600860009054906101000a900473ffffffffffffffffffffffffffffffffffffffff1673ffffffffffffffffffffffffffffffffffffffff1663a035b1fe6040518163ffffffff1660e01b8152600401602060405180830381865afa158015610411573d6000803e3d6000fd5b505050506040513d601f19601f820116820180604052508101906104359190610615565b600281905550565b60035481565b60055481565b60025481565b6000819050919050565b6104628161044f565b82525050565b600060208201905061047d6000830184610459565b92915050565b600080fd5b6104918161044f565b811461049c57600080fd5b50565b6000813590506104ae81610488565b92915050565b6000602082840312156104ca576104c9610483565b5b60006104d88482850161049f565b91505092915050565b7f4e487b7100000000000000000000000000000000000000000000000000000000600052601160045260246000fd5b600061051b8261044f565b91506105268361044f565b925082820190508082111561053e5761053d6104e1565b5b92915050565b7f4e487b7100000000000000000000000000000000000000000000000000000000600052601260045260246000fd5b600061057e8261044f565b91506105898361044f565b92508261059957610598610544565b5b828204905092915050565b600073ffffffffffffffffffffffffffffffffffffffff82169050919050565b60006105cf826105a4565b9050919050565b6105df816105c4565b82525050565b60006020820190506105fa60008301846105d6565b92915050565b60008151905061060f81610488565b92915050565b60006020828403121561062b5761062a610483565b5b600061063984828501610600565b9150509291505056fea2646970667358221220798897efa3a14131c380058064066c7fb38e24f2eeabe4eeef4ebd49becdc43f64736f6c63430008110033",
  "linkReferences": {},
  "deployedLinkReferences": {}
}