{
  "_format": "hh-sol-artifact-1",
  "contractName": "OrangePriceFeed",
  "sourceName": "contracts/OrangePriceFeed.sol",
  "abi": [
    {
      "inputs": [
        {
          "internalType": "address",
          "name": "_orangePriceFeed1Contract",
          "type": "address"
        },
        {
          "internalType": "address",
          "name": "_orangePriceFeed2Contract",
          "type": "address"
        },
        {
          "internalType": "address",
          "name": "_orangePriceFeed3Contract",
          "type": "address"
        },
        {
          "internalType": "address",
          "name": "_pushNotificationContract",
          "type": "address"
        }
      ],
      "stateMutability": "nonpayable",
      "type": "constructor"
    },
    {
      "inputs": [],
      "name": "averagePrice",
      "outputs": [
        {
          "internalType": "uint256",
          "name": "",
          "type": "uint256"
        }
      ],
      "stateMutability": "view",
      "type": "function"
    },
    {
      "inputs": [],
      "name": "calcAveragePrice",
      "outputs": [
        {
          "internalType": "uint256",
          "name": "",
          "type": "uint256"
        }
      ],
      "stateMutability": "view",
      "type": "function"
    },
    {
      "inputs": [
        {
          "internalType": "uint256",
          "name": "_averagePrice",
          "type": "uint256"
        }
      ],
      "name": "calcAveragePrice",
      "outputs": [
        {
          "internalType": "uint256",
          "name": "",
          "type": "uint256"
        }
      ],
      "stateMutability": "nonpayable",
      "type": "function"
    },
    {
      "inputs": [],
      "name": "flag",
      "outputs": [
        {
          "internalType": "uint256",
          "name": "",
          "type": "uint256"
        }
      ],
      "stateMutability": "view",
      "type": "function"
    },
    {
      "inputs": [],
      "name": "getPrice",
      "outputs": [],
      "stateMutability": "nonpayable",
      "type": "function"
    },
    {
      "inputs": [],
      "name": "limit",
      "outputs": [
        {
          "internalType": "uint256",
          "name": "",
          "type": "uint256"
        }
      ],
      "stateMutability": "view",
      "type": "function"
    },
    {
      "inputs": [],
      "name": "price1",
      "outputs": [
        {
          "internalType": "uint256",
          "name": "",
          "type": "uint256"
        }
      ],
      "stateMutability": "view",
      "type": "function"
    },
    {
      "inputs": [],
      "name": "price2",
      "outputs": [
        {
          "internalType": "uint256",
          "name": "",
          "type": "uint256"
        }
      ],
      "stateMutability": "view",
      "type": "function"
    },
    {
      "inputs": [],
      "name": "price3",
      "outputs": [
        {
          "internalType": "uint256",
          "name": "",
          "type": "uint256"
        }
      ],
      "stateMutability": "view",
      "type": "function"
    },
    {
      "inputs": [
        {
          "internalType": "uint256",
          "name": "_limit",
          "type": "uint256"
        }
      ],
      "name": "updatelimit",
      "outputs": [],
      "stateMutability": "nonpayable",
      "type": "function"
    }
  ],
  "bytecode": "0x60806040526000805560006001556000600255600060035560006004557fffffffffffffffffffffffffffffffffffffffffffffffffffffffffffffffff60055534801561004c57600080fd5b50604051610930380380610930833981810160405281019061006e91906101de565b83600660006101000a81548173ffffffffffffffffffffffffffffffffffffffff021916908373ffffffffffffffffffffffffffffffffffffffff16021790555082600760006101000a81548173ffffffffffffffffffffffffffffffffffffffff021916908373ffffffffffffffffffffffffffffffffffffffff16021790555081600860006101000a81548173ffffffffffffffffffffffffffffffffffffffff021916908373ffffffffffffffffffffffffffffffffffffffff16021790555080600960006101000a81548173ffffffffffffffffffffffffffffffffffffffff021916908373ffffffffffffffffffffffffffffffffffffffff16021790555050505050610245565b600080fd5b600073ffffffffffffffffffffffffffffffffffffffff82169050919050565b60006101ab82610180565b9050919050565b6101bb816101a0565b81146101c657600080fd5b50565b6000815190506101d8816101b2565b92915050565b600080600080608085870312156101f8576101f761017b565b5b6000610206878288016101c9565b9450506020610217878288016101c9565b9350506040610228878288016101c9565b9250506060610239878288016101c9565b91505092959194509250565b6106dc806102546000396000f3fe608060405234801561001057600080fd5b506004361061009e5760003560e01c806396b4ebe31161006657806396b4ebe31461013757806398d5fdca14610167578063a0352ea314610171578063a4d66daf1461018f578063d778c911146101ad5761009e565b806309ac44ee146100a357806327a3181d146100bf5780636caf25ce146100dd5780637dfc193c146100fb578063890eba6814610119575b600080fd5b6100bd60048036038101906100b891906104ee565b6101cb565b005b6100c76101d5565b6040516100d4919061052a565b60405180910390f35b6100e56101db565b6040516100f2919061052a565b60405180910390f35b6101036101e1565b604051610110919061052a565b60405180910390f35b6101216101eb565b60405161012e919061052a565b60405180910390f35b610151600480360381019061014c91906104ee565b6101f1565b60405161015e919061052a565b60405180910390f35b61016f6102da565b005b6101796104a1565b604051610186919061052a565b60405180910390f35b6101976104a7565b6040516101a4919061052a565b60405180910390f35b6101b56104ad565b6040516101c2919061052a565b60405180910390f35b8060058190555050565b60015481565b60005481565b6000600354905090565b60045481565b600060036002546001546000546102089190610574565b6102129190610574565b61021c91906105d7565b600381905550600354600554116102c7576001600481905550600960009054906101000a900473ffffffffffffffffffffffffffffffffffffffff1673ffffffffffffffffffffffffffffffffffffffff1663e1cb7c76336040518263ffffffff1660e01b81526004016102909190610649565b600060405180830381600087803b1580156102aa57600080fd5b505af11580156102be573d6000803e3d6000fd5b505050506102d0565b60006004819055505b6003549050919050565b600660009054906101000a900473ffffffffffffffffffffffffffffffffffffffff1673ffffffffffffffffffffffffffffffffffffffff1663a035b1fe6040518163ffffffff1660e01b8152600401602060405180830381865afa158015610347573d6000803e3d6000fd5b505050506040513d601f19601f8201168201806040525081019061036b9190610679565b600081905550600760009054906101000a900473ffffffffffffffffffffffffffffffffffffffff1673ffffffffffffffffffffffffffffffffffffffff1663a035b1fe6040518163ffffffff1660e01b8152600401602060405180830381865afa1580156103de573d6000803e3d6000fd5b505050506040513d601f19601f820116820180604052508101906104029190610679565b600181905550600860009054906101000a900473ffffffffffffffffffffffffffffffffffffffff1673ffffffffffffffffffffffffffffffffffffffff1663a035b1fe6040518163ffffffff1660e01b8152600401602060405180830381865afa158015610475573d6000803e3d6000fd5b505050506040513d601f19601f820116820180604052508101906104999190610679565b600281905550565b60035481565b60055481565b60025481565b600080fd5b6000819050919050565b6104cb816104b8565b81146104d657600080fd5b50565b6000813590506104e8816104c2565b92915050565b600060208284031215610504576105036104b3565b5b6000610512848285016104d9565b91505092915050565b610524816104b8565b82525050565b600060208201905061053f600083018461051b565b92915050565b7f4e487b7100000000000000000000000000000000000000000000000000000000600052601160045260246000fd5b600061057f826104b8565b915061058a836104b8565b92508282019050808211156105a2576105a1610545565b5b92915050565b7f4e487b7100000000000000000000000000000000000000000000000000000000600052601260045260246000fd5b60006105e2826104b8565b91506105ed836104b8565b9250826105fd576105fc6105a8565b5b828204905092915050565b600073ffffffffffffffffffffffffffffffffffffffff82169050919050565b600061063382610608565b9050919050565b61064381610628565b82525050565b600060208201905061065e600083018461063a565b92915050565b600081519050610673816104c2565b92915050565b60006020828403121561068f5761068e6104b3565b5b600061069d84828501610664565b9150509291505056fea2646970667358221220f218a3025ef1a1a5d98bce61ee605c7486d50aa3a8953cc599f3652773fd6e2a64736f6c63430008110033",
  "linkReferences": {},
  "deployedLinkReferences": {}
}